{
  "_format": "hh3-artifact-1",
  "contractName": "DigitalGoodsStore",
  "sourceName": "contracts/DigitalGoodsStore.sol",
  "abi": [
    {
      "inputs": [
        {
          "internalType": "address",
          "name": "initialOwner",
          "type": "address"
        }
      ],
      "stateMutability": "nonpayable",
      "type": "constructor"
    },
    {
      "inputs": [
        {
          "internalType": "address",
          "name": "sender",
          "type": "address"
        },
        {
          "internalType": "uint256",
          "name": "tokenId",
          "type": "uint256"
        },
        {
          "internalType": "address",
          "name": "owner",
          "type": "address"
        }
      ],
      "name": "ERC721IncorrectOwner",
      "type": "error"
    },
    {
      "inputs": [
        {
          "internalType": "address",
          "name": "operator",
          "type": "address"
        },
        {
          "internalType": "uint256",
          "name": "tokenId",
          "type": "uint256"
        }
      ],
      "name": "ERC721InsufficientApproval",
      "type": "error"
    },
    {
      "inputs": [
        {
          "internalType": "address",
          "name": "approver",
          "type": "address"
        }
      ],
      "name": "ERC721InvalidApprover",
      "type": "error"
    },
    {
      "inputs": [
        {
          "internalType": "address",
          "name": "operator",
          "type": "address"
        }
      ],
      "name": "ERC721InvalidOperator",
      "type": "error"
    },
    {
      "inputs": [
        {
          "internalType": "address",
          "name": "owner",
          "type": "address"
        }
      ],
      "name": "ERC721InvalidOwner",
      "type": "error"
    },
    {
      "inputs": [
        {
          "internalType": "address",
          "name": "receiver",
          "type": "address"
        }
      ],
      "name": "ERC721InvalidReceiver",
      "type": "error"
    },
    {
      "inputs": [
        {
          "internalType": "address",
          "name": "sender",
          "type": "address"
        }
      ],
      "name": "ERC721InvalidSender",
      "type": "error"
    },
    {
      "inputs": [
        {
          "internalType": "uint256",
          "name": "tokenId",
          "type": "uint256"
        }
      ],
      "name": "ERC721NonexistentToken",
      "type": "error"
    },
    {
      "inputs": [
        {
          "internalType": "address",
          "name": "owner",
          "type": "address"
        }
      ],
      "name": "OwnableInvalidOwner",
      "type": "error"
    },
    {
      "inputs": [
        {
          "internalType": "address",
          "name": "account",
          "type": "address"
        }
      ],
      "name": "OwnableUnauthorizedAccount",
      "type": "error"
    },
    {
      "anonymous": false,
      "inputs": [
        {
          "indexed": true,
          "internalType": "address",
          "name": "owner",
          "type": "address"
        },
        {
          "indexed": true,
          "internalType": "address",
          "name": "approved",
          "type": "address"
        },
        {
          "indexed": true,
          "internalType": "uint256",
          "name": "tokenId",
          "type": "uint256"
        }
      ],
      "name": "Approval",
      "type": "event"
    },
    {
      "anonymous": false,
      "inputs": [
        {
          "indexed": true,
          "internalType": "address",
          "name": "owner",
          "type": "address"
        },
        {
          "indexed": true,
          "internalType": "address",
          "name": "operator",
          "type": "address"
        },
        {
          "indexed": false,
          "internalType": "bool",
          "name": "approved",
          "type": "bool"
        }
      ],
      "name": "ApprovalForAll",
      "type": "event"
    },
    {
      "anonymous": false,
      "inputs": [
        {
          "indexed": false,
          "internalType": "uint256",
          "name": "_fromTokenId",
          "type": "uint256"
        },
        {
          "indexed": false,
          "internalType": "uint256",
          "name": "_toTokenId",
          "type": "uint256"
        }
      ],
      "name": "BatchMetadataUpdate",
      "type": "event"
    },
    {
      "anonymous": false,
      "inputs": [
        {
          "indexed": false,
          "internalType": "uint256",
          "name": "_tokenId",
          "type": "uint256"
        }
      ],
      "name": "MetadataUpdate",
      "type": "event"
    },
    {
      "anonymous": false,
      "inputs": [
        {
          "indexed": true,
          "internalType": "address",
          "name": "buyer",
          "type": "address"
        },
        {
          "indexed": true,
          "internalType": "uint256",
          "name": "tokenId",
          "type": "uint256"
        },
        {
          "indexed": false,
          "internalType": "uint256",
          "name": "productId",
          "type": "uint256"
        },
        {
          "indexed": false,
          "internalType": "string",
          "name": "tokenURI",
          "type": "string"
        }
      ],
      "name": "NFTOwnershipMinted",
      "type": "event"
    },
    {
      "anonymous": false,
      "inputs": [
        {
          "indexed": true,
          "internalType": "address",
          "name": "previousOwner",
          "type": "address"
        },
        {
          "indexed": true,
          "internalType": "address",
          "name": "newOwner",
          "type": "address"
        }
      ],
      "name": "OwnershipTransferred",
      "type": "event"
    },
    {
      "anonymous": false,
      "inputs": [
        {
          "indexed": true,
          "internalType": "uint256",
          "name": "productId",
          "type": "uint256"
        },
        {
          "indexed": false,
          "internalType": "uint256",
          "name": "oldPrice",
          "type": "uint256"
        },
        {
          "indexed": false,
          "internalType": "uint256",
          "name": "newPrice",
          "type": "uint256"
        }
      ],
      "name": "PriceUpdated",
      "type": "event"
    },
    {
      "anonymous": false,
      "inputs": [
        {
          "indexed": true,
          "internalType": "address",
          "name": "from",
          "type": "address"
        },
        {
          "indexed": true,
          "internalType": "address",
          "name": "to",
          "type": "address"
        },
        {
          "indexed": true,
          "internalType": "uint256",
          "name": "tokenId",
          "type": "uint256"
        }
      ],
      "name": "Transfer",
      "type": "event"
    },
    {
      "inputs": [
        {
          "internalType": "address",
          "name": "to",
          "type": "address"
        },
        {
          "internalType": "uint256",
          "name": "tokenId",
          "type": "uint256"
        }
      ],
      "name": "approve",
      "outputs": [],
      "stateMutability": "nonpayable",
      "type": "function"
    },
    {
      "inputs": [
        {
          "internalType": "address",
          "name": "owner",
          "type": "address"
        }
      ],
      "name": "balanceOf",
      "outputs": [
        {
          "internalType": "uint256",
          "name": "",
          "type": "uint256"
        }
      ],
      "stateMutability": "view",
      "type": "function"
    },
    {
      "inputs": [
        {
          "internalType": "uint256",
          "name": "productId",
          "type": "uint256"
        },
        {
          "internalType": "string",
          "name": "awsTokenURI",
          "type": "string"
        }
      ],
      "name": "buyDigitalGood",
      "outputs": [],
      "stateMutability": "payable",
      "type": "function"
    },
    {
      "inputs": [
        {
          "internalType": "uint256",
          "name": "tokenId",
          "type": "uint256"
        }
      ],
      "name": "getApproved",
      "outputs": [
        {
          "internalType": "address",
          "name": "",
          "type": "address"
        }
      ],
      "stateMutability": "view",
      "type": "function"
    },
    {
      "inputs": [
        {
          "internalType": "address",
          "name": "owner",
          "type": "address"
        },
        {
          "internalType": "address",
          "name": "operator",
          "type": "address"
        }
      ],
      "name": "isApprovedForAll",
      "outputs": [
        {
          "internalType": "bool",
          "name": "",
          "type": "bool"
        }
      ],
      "stateMutability": "view",
      "type": "function"
    },
    {
      "inputs": [
        {
          "internalType": "address",
          "name": "buyer",
          "type": "address"
        },
        {
          "internalType": "string",
          "name": "awsTokenURI",
          "type": "string"
        },
        {
          "internalType": "uint256",
          "name": "productId",
          "type": "uint256"
        }
      ],
      "name": "mintForFiatBuyer",
      "outputs": [],
      "stateMutability": "nonpayable",
      "type": "function"
    },
    {
      "inputs": [],
      "name": "name",
      "outputs": [
        {
          "internalType": "string",
          "name": "",
          "type": "string"
        }
      ],
      "stateMutability": "view",
      "type": "function"
    },
    {
      "inputs": [],
      "name": "owner",
      "outputs": [
        {
          "internalType": "address",
          "name": "",
          "type": "address"
        }
      ],
      "stateMutability": "view",
      "type": "function"
    },
    {
      "inputs": [
        {
          "internalType": "uint256",
          "name": "tokenId",
          "type": "uint256"
        }
      ],
      "name": "ownerOf",
      "outputs": [
        {
          "internalType": "address",
          "name": "",
          "type": "address"
        }
      ],
      "stateMutability": "view",
      "type": "function"
    },
    {
      "inputs": [
        {
          "internalType": "uint256",
          "name": "",
          "type": "uint256"
        }
      ],
      "name": "productPrices",
      "outputs": [
        {
          "internalType": "uint256",
          "name": "",
          "type": "uint256"
        }
      ],
      "stateMutability": "view",
      "type": "function"
    },
    {
      "inputs": [],
      "name": "renounceOwnership",
      "outputs": [],
      "stateMutability": "nonpayable",
      "type": "function"
    },
    {
      "inputs": [
        {
          "internalType": "address",
          "name": "from",
          "type": "address"
        },
        {
          "internalType": "address",
          "name": "to",
          "type": "address"
        },
        {
          "internalType": "uint256",
          "name": "tokenId",
          "type": "uint256"
        }
      ],
      "name": "safeTransferFrom",
      "outputs": [],
      "stateMutability": "nonpayable",
      "type": "function"
    },
    {
      "inputs": [
        {
          "internalType": "address",
          "name": "from",
          "type": "address"
        },
        {
          "internalType": "address",
          "name": "to",
          "type": "address"
        },
        {
          "internalType": "uint256",
          "name": "tokenId",
          "type": "uint256"
        },
        {
          "internalType": "bytes",
          "name": "data",
          "type": "bytes"
        }
      ],
      "name": "safeTransferFrom",
      "outputs": [],
      "stateMutability": "nonpayable",
      "type": "function"
    },
    {
      "inputs": [
        {
          "internalType": "address",
          "name": "operator",
          "type": "address"
        },
        {
          "internalType": "bool",
          "name": "approved",
          "type": "bool"
        }
      ],
      "name": "setApprovalForAll",
      "outputs": [],
      "stateMutability": "nonpayable",
      "type": "function"
    },
    {
      "inputs": [
        {
          "internalType": "uint256",
          "name": "productId",
          "type": "uint256"
        },
        {
          "internalType": "uint256",
          "name": "price",
          "type": "uint256"
        }
      ],
      "name": "setProductPrice",
      "outputs": [],
      "stateMutability": "nonpayable",
      "type": "function"
    },
    {
      "inputs": [
        {
          "internalType": "bytes4",
          "name": "interfaceId",
          "type": "bytes4"
        }
      ],
      "name": "supportsInterface",
      "outputs": [
        {
          "internalType": "bool",
          "name": "",
          "type": "bool"
        }
      ],
      "stateMutability": "view",
      "type": "function"
    },
    {
      "inputs": [],
      "name": "symbol",
      "outputs": [
        {
          "internalType": "string",
          "name": "",
          "type": "string"
        }
      ],
      "stateMutability": "view",
      "type": "function"
    },
    {
      "inputs": [
        {
          "internalType": "uint256",
          "name": "tokenId",
          "type": "uint256"
        }
      ],
      "name": "tokenURI",
      "outputs": [
        {
          "internalType": "string",
          "name": "",
          "type": "string"
        }
      ],
      "stateMutability": "view",
      "type": "function"
    },
    {
      "inputs": [
        {
          "internalType": "address",
          "name": "from",
          "type": "address"
        },
        {
          "internalType": "address",
          "name": "to",
          "type": "address"
        },
        {
          "internalType": "uint256",
          "name": "tokenId",
          "type": "uint256"
        }
      ],
      "name": "transferFrom",
      "outputs": [],
      "stateMutability": "nonpayable",
      "type": "function"
    },
    {
      "inputs": [
        {
          "internalType": "address",
          "name": "newOwner",
          "type": "address"
        }
      ],
      "name": "transferOwnership",
      "outputs": [],
      "stateMutability": "nonpayable",
      "type": "function"
    },
    {
      "inputs": [],
      "name": "withdrawFunds",
      "outputs": [],
      "stateMutability": "nonpayable",
      "type": "function"
    }
  ],
  "bytecode": "0x608060405234801561000f575f5ffd5b50604051611b53380380611b5383398101604081905261002e91610122565b806040518060400160405280601281526020017142617365204469676974616c20476f6f647360701b8152506040518060400160405280600381526020016242444760e81b815250815f908161008491906101e7565b50600161009182826101e7565b5050506001600160a01b0381166100c157604051631e4fbdf760e01b81525f600482015260240160405180910390fd5b6100ca816100d1565b50506102a1565b600780546001600160a01b038381166001600160a01b0319831681179093556040519116919082907f8be0079c531659141344cd1fd0a4f28419497f9722a3daafe3b4186f6b6457e0905f90a35050565b5f60208284031215610132575f5ffd5b81516001600160a01b0381168114610148575f5ffd5b9392505050565b634e487b7160e01b5f52604160045260245ffd5b600181811c9082168061017757607f821691505b60208210810361019557634e487b7160e01b5f52602260045260245ffd5b50919050565b601f8211156101e257805f5260205f20601f840160051c810160208510156101c05750805b601f840160051c820191505b818110156101df575f81556001016101cc565b50505b505050565b81516001600160401b038111156102005761020061014f565b6102148161020e8454610163565b8461019b565b6020601f821160018114610246575f831561022f5750848201515b5f19600385901b1c1916600184901b1784556101df565b5f84815260208120601f198516915b828110156102755787850151825560209485019460019092019101610255565b508482101561029257868401515f19600387901b60f8161c191681555b50505050600190811b01905550565b6118a5806102ae5f395ff3fe608060405260043610610126575f3560e01c80635cfa7806116100a857806395d89b411161006d57806395d89b4114610322578063a22cb46514610336578063b88d4fde14610355578063c87b56dd14610374578063e985e9c514610393578063f2fde38b146103b2575f5ffd5b80635cfa7806146102945780636352211e146102b357806370a08231146102d2578063715018a6146102f15780638da5cb5b14610305575f5ffd5b806323b872dd116100ee57806323b872dd146101ea57806324600fc31461020957806338eb6a191461021d57806342842e0e1461025657806344d3498a14610275575f5ffd5b806301ffc9a71461012a57806306fdde031461015e578063081812fc1461017f578063095ea7b3146101b65780632388da50146101d7575b5f5ffd5b348015610135575f5ffd5b50610149610144366004611315565b6103d1565b60405190151581526020015b60405180910390f35b348015610169575f5ffd5b506101726103fb565b604051610155919061135e565b34801561018a575f5ffd5b5061019e610199366004611370565b61048a565b6040516001600160a01b039091168152602001610155565b3480156101c1575f5ffd5b506101d56101d03660046113a2565b6104b1565b005b6101d56101e5366004611473565b6104c0565b3480156101f5575f5ffd5b506101d56102043660046114b7565b61064a565b348015610214575f5ffd5b506101d56106cd565b348015610228575f5ffd5b50610248610237366004611370565b60096020525f908152604090205481565b604051908152602001610155565b348015610261575f5ffd5b506101d56102703660046114b7565b610771565b348015610280575f5ffd5b506101d561028f3660046114f1565b610790565b34801561029f575f5ffd5b506101d56102ae366004611511565b6107f3565b3480156102be575f5ffd5b5061019e6102cd366004611370565b61086f565b3480156102dd575f5ffd5b506102486102ec366004611565565b610879565b3480156102fc575f5ffd5b506101d56108be565b348015610310575f5ffd5b506007546001600160a01b031661019e565b34801561032d575f5ffd5b506101726108d1565b348015610341575f5ffd5b506101d561035036600461157e565b6108e0565b348015610360575f5ffd5b506101d561036f3660046115b7565b6108eb565b34801561037f575f5ffd5b5061017261038e366004611370565b610903565b34801561039e575f5ffd5b506101496103ad36600461162e565b610984565b3480156103bd575f5ffd5b506101d56103cc366004611565565b6109b1565b5f6001600160e01b03198216632483248360e11b14806103f557506103f5826109ee565b92915050565b60605f80546104099061165f565b80601f01602080910402602001604051908101604052809291908181526020018280546104359061165f565b80156104805780601f1061045757610100808354040283529160200191610480565b820191905f5260205f20905b81548152906001019060200180831161046357829003601f168201915b5050505050905090565b5f61049482610a3d565b505f828152600460205260409020546001600160a01b03166103f5565b6104bc828233610a75565b5050565b5f82815260096020526040902054806105335760405162461bcd60e51b815260206004820152602a60248201527f50726f64756b2062656c756d2064696461667461726b616e206174617520746960448201526919185ac8191a5a9d585b60b21b60648201526084015b60405180910390fd5b803410156105995760405162461bcd60e51b815260206004820152602d60248201527f44616e612079616e672064696b6972696d6b616e206b7572616e67206461726960448201526c2068617267612070726f64756b60981b606482015260840161052a565b600880549081905f6105aa836116ab565b91905055506105b93382610a82565b6105c38184610a9b565b80336001600160a01b03167f8d5947ae419462fea383235ce2359f0928c2e614e9563461d44b51a255d747d586866040516105ff9291906116c3565b60405180910390a38134111561064457336108fc61061d84346116db565b6040518115909202915f818181858888f19350505050158015610642573d5f5f3e3d5ffd5b505b50505050565b6001600160a01b03821661067357604051633250574960e11b81525f600482015260240161052a565b5f61067f838333610aea565b9050836001600160a01b0316816001600160a01b031614610644576040516364283d7b60e01b81526001600160a01b038086166004830152602482018490528216604482015260640161052a565b6106d5610bdc565b478061073a5760405162461bcd60e51b815260206004820152602e60248201527f53616c646f206b6f736f6e672c20746964616b206164612064616e612079616e60448201526d672062697361206469746172696b60901b606482015260840161052a565b6007546040516001600160a01b039091169082156108fc029083905f818181858888f193505050501580156104bc573d5f5f3e3d5ffd5b61078b83838360405180602001604052805f8152506108eb565b505050565b610798610bdc565b5f8281526009602090815260409182902054825190815290810183905283917f15819dd2fd9f6418b142e798d08a18d0bf06ea368f4480b7b0d3f75bd966bc48910160405180910390a25f9182526009602052604090912055565b6107fb610bdc565b600880549081905f61080c836116ab565b919050555061081b8482610a82565b6108258184610a9b565b80846001600160a01b03167f8d5947ae419462fea383235ce2359f0928c2e614e9563461d44b51a255d747d584866040516108619291906116c3565b60405180910390a350505050565b5f6103f582610a3d565b5f6001600160a01b0382166108a3576040516322718ad960e21b81525f600482015260240161052a565b506001600160a01b03165f9081526003602052604090205490565b6108c6610bdc565b6108cf5f610c09565b565b6060600180546104099061165f565b6104bc338383610c5a565b6108f684848461064a565b6106443385858585610d21565b606061090e82610a3d565b505f61092460408051602081019091525f815290565b90505f61093084610e48565b905081515f03610941579392505050565b80511561097357818160405160200161095b929190611705565b60405160208183030381529060405292505050919050565b61097c84610ee7565b949350505050565b6001600160a01b039182165f90815260056020908152604080832093909416825291909152205460ff1690565b6109b9610bdc565b6001600160a01b0381166109e257604051631e4fbdf760e01b81525f600482015260240161052a565b6109eb81610c09565b50565b5f6001600160e01b031982166380ac58cd60e01b1480610a1e57506001600160e01b03198216635b5e139f60e01b145b806103f557506301ffc9a760e01b6001600160e01b03198316146103f5565b5f818152600260205260408120546001600160a01b0316806103f557604051637e27328960e01b81526004810184905260240161052a565b61078b8383836001610f58565b6104bc828260405180602001604052805f81525061105c565b5f828152600660205260409020610ab2828261175d565b506040518281527ff8e1a15aba9398e019f0b49df1a4fde98ee17ae345cb5f6b5e2c27f5033e8ce79060200160405180910390a15050565b5f828152600260205260408120546001600160a01b0390811690831615610b1657610b16818486611073565b6001600160a01b03811615610b5057610b315f855f5f610f58565b6001600160a01b0381165f90815260036020526040902080545f190190555b6001600160a01b03851615610b7e576001600160a01b0385165f908152600360205260409020805460010190555b5f8481526002602052604080822080546001600160a01b0319166001600160a01b0389811691821790925591518793918516917fddf252ad1be2c89b69c2b068fc378daa952ba7f163c4a11628f55a4df523b3ef91a4949350505050565b6007546001600160a01b031633146108cf5760405163118cdaa760e01b815233600482015260240161052a565b600780546001600160a01b038381166001600160a01b0319831681179093556040519116919082907f8be0079c531659141344cd1fd0a4f28419497f9722a3daafe3b4186f6b6457e0905f90a35050565b6001600160a01b038316610c835760405163a9fbf51f60e01b81525f600482015260240161052a565b6001600160a01b038216610cb557604051630b61174360e31b81526001600160a01b038316600482015260240161052a565b6001600160a01b038381165f81815260056020908152604080832094871680845294825291829020805460ff191686151590811790915591519182527f17307eab39ab6107e8899845ad3d59bd9653f200f220920489ca2b5937696c31910160405180910390a3505050565b6001600160a01b0383163b1561064257604051630a85bd0160e11b81526001600160a01b0384169063150b7a0290610d63908890889087908790600401611818565b6020604051808303815f875af1925050508015610d9d575060408051601f3d908101601f19168201909252610d9a91810190611854565b60015b610e04573d808015610dca576040519150601f19603f3d011682016040523d82523d5f602084013e610dcf565b606091505b5080515f03610dfc57604051633250574960e11b81526001600160a01b038516600482015260240161052a565b805160208201fd5b6001600160e01b03198116630a85bd0160e11b14610e4057604051633250574960e11b81526001600160a01b038516600482015260240161052a565b505050505050565b5f818152600660205260409020805460609190610e649061165f565b80601f0160208091040260200160405190810160405280929190818152602001828054610e909061165f565b8015610edb5780601f10610eb257610100808354040283529160200191610edb565b820191905f5260205f20905b815481529060010190602001808311610ebe57829003601f168201915b50505050509050919050565b6060610ef282610a3d565b505f610f0860408051602081019091525f815290565b90505f815111610f265760405180602001604052805f815250610f51565b80610f30846110d7565b604051602001610f41929190611705565b6040516020818303038152906040525b9392505050565b8080610f6c57506001600160a01b03821615155b1561102d575f610f7b84610a3d565b90506001600160a01b03831615801590610fa75750826001600160a01b0316816001600160a01b031614155b8015610fba5750610fb88184610984565b155b15610fe35760405163a9fbf51f60e01b81526001600160a01b038416600482015260240161052a565b811561102b5783856001600160a01b0316826001600160a01b03167f8c5be1e5ebec7d5bd14f71427d1e84f3dd0314c0f7b2291e5b200ac8c7c3b92560405160405180910390a45b505b50505f90815260046020526040902080546001600160a01b0319166001600160a01b0392909216919091179055565b6110668383611167565b61078b335f858585610d21565b61107e8383836111c8565b61078b576001600160a01b0383166110ac57604051637e27328960e01b81526004810182905260240161052a565b60405163177e802f60e01b81526001600160a01b03831660048201526024810182905260440161052a565b60605f6110e383611229565b60010190505f8167ffffffffffffffff811115611102576111026113ca565b6040519080825280601f01601f19166020018201604052801561112c576020820181803683370190505b5090508181016020015b5f19016f181899199a1a9b1b9c1cb0b131b232b360811b600a86061a8153600a850494508461113657509392505050565b6001600160a01b03821661119057604051633250574960e11b81525f600482015260240161052a565b5f61119c83835f610aea565b90506001600160a01b0381161561078b576040516339e3563760e11b81525f600482015260240161052a565b5f6001600160a01b0383161580159061097c5750826001600160a01b0316846001600160a01b0316148061120157506112018484610984565b8061097c5750505f908152600460205260409020546001600160a01b03908116911614919050565b5f8072184f03e93ff9f4daa797ed6e38ed64bf6a1f0160401b83106112675772184f03e93ff9f4daa797ed6e38ed64bf6a1f0160401b830492506040015b6d04ee2d6d415b85acef81000000008310611293576d04ee2d6d415b85acef8100000000830492506020015b662386f26fc1000083106112b157662386f26fc10000830492506010015b6305f5e10083106112c9576305f5e100830492506008015b61271083106112dd57612710830492506004015b606483106112ef576064830492506002015b600a83106103f55760010192915050565b6001600160e01b0319811681146109eb575f5ffd5b5f60208284031215611325575f5ffd5b8135610f5181611300565b5f81518084528060208401602086015e5f602082860101526020601f19601f83011685010191505092915050565b602081525f610f516020830184611330565b5f60208284031215611380575f5ffd5b5035919050565b80356001600160a01b038116811461139d575f5ffd5b919050565b5f5f604083850312156113b3575f5ffd5b6113bc83611387565b946020939093013593505050565b634e487b7160e01b5f52604160045260245ffd5b5f5f67ffffffffffffffff8411156113f8576113f86113ca565b50604051601f19601f85018116603f0116810181811067ffffffffffffffff82111715611427576114276113ca565b60405283815290508082840185101561143e575f5ffd5b838360208301375f60208583010152509392505050565b5f82601f830112611464575f5ffd5b610f51838335602085016113de565b5f5f60408385031215611484575f5ffd5b82359150602083013567ffffffffffffffff8111156114a1575f5ffd5b6114ad85828601611455565b9150509250929050565b5f5f5f606084860312156114c9575f5ffd5b6114d284611387565b92506114e060208501611387565b929592945050506040919091013590565b5f5f60408385031215611502575f5ffd5b50508035926020909101359150565b5f5f5f60608486031215611523575f5ffd5b61152c84611387565b9250602084013567ffffffffffffffff811115611547575f5ffd5b61155386828701611455565b93969395505050506040919091013590565b5f60208284031215611575575f5ffd5b610f5182611387565b5f5f6040838503121561158f575f5ffd5b61159883611387565b9150602083013580151581146115ac575f5ffd5b809150509250929050565b5f5f5f5f608085870312156115ca575f5ffd5b6115d385611387565b93506115e160208601611387565b925060408501359150606085013567ffffffffffffffff811115611603575f5ffd5b8501601f81018713611613575f5ffd5b611622878235602084016113de565b91505092959194509250565b5f5f6040838503121561163f575f5ffd5b61164883611387565b915061165660208401611387565b90509250929050565b600181811c9082168061167357607f821691505b60208210810361169157634e487b7160e01b5f52602260045260245ffd5b50919050565b634e487b7160e01b5f52601160045260245ffd5b5f600182016116bc576116bc611697565b5060010190565b828152604060208201525f61097c6040830184611330565b818103818111156103f5576103f5611697565b5f81518060208401855e5f93019283525090919050565b5f61097c61171383866116ee565b846116ee565b601f82111561078b57805f5260205f20601f840160051c8101602085101561173e5750805b601f840160051c820191505b81811015610642575f815560010161174a565b815167ffffffffffffffff811115611777576117776113ca565b61178b81611785845461165f565b84611719565b6020601f8211600181146117bd575f83156117a65750848201515b5f19600385901b1c1916600184901b178455610642565b5f84815260208120601f198516915b828110156117ec57878501518255602094850194600190920191016117cc565b508482101561180957868401515f19600387901b60f8161c191681555b50505050600190811b01905550565b6001600160a01b03858116825284166020820152604081018390526080606082018190525f9061184a90830184611330565b9695505050505050565b5f60208284031215611864575f5ffd5b8151610f518161130056fea2646970667358221220058dd5b016fbb4c972a0121408f6e537863a7a0bed4d7ed250b93a2f77eef96f64736f6c634300081c0033",
  "linkReferences": {},
  "deployedLinkReferences": {},
  "immutableReferences": {},
  "inputSourceName": "project/contracts/DigitalGoodsStore.sol",
  "buildInfoId": "solc-0_8_28-b2fcd231682d1537beaded6807420843ad4a198d"
}